{
  "address": "0xFB88dE099e13c3ED21F80a7a1E49f8CAEcF10df6",
  "abi": [
    {
      "inputs": [
        {
          "internalType": "address",
          "name": "_feeToSetter",
          "type": "address"
        }
      ],
      "stateMutability": "nonpayable",
      "type": "constructor"
    },
    {
      "anonymous": false,
      "inputs": [
        {
          "indexed": true,
          "internalType": "address",
          "name": "token0",
          "type": "address"
        },
        {
          "indexed": true,
          "internalType": "address",
          "name": "token1",
          "type": "address"
        },
        {
          "indexed": false,
          "internalType": "address",
          "name": "pair",
          "type": "address"
        },
        {
          "indexed": false,
          "internalType": "uint256",
          "name": "",
          "type": "uint256"
        }
      ],
      "name": "PairCreated",
      "type": "event"
    },
    {
      "inputs": [
        {
          "internalType": "uint256",
          "name": "",
          "type": "uint256"
        }
      ],
      "name": "allPairs",
      "outputs": [
        {
          "internalType": "address",
          "name": "",
          "type": "address"
        }
      ],
      "stateMutability": "view",
      "type": "function"
    },
    {
      "inputs": [],
      "name": "allPairsLength",
      "outputs": [
        {
          "internalType": "uint256",
          "name": "",
          "type": "uint256"
        }
      ],
      "stateMutability": "view",
      "type": "function"
    },
    {
      "inputs": [
        {
          "internalType": "address",
          "name": "tokenA",
          "type": "address"
        },
        {
          "internalType": "address",
          "name": "tokenB",
          "type": "address"
        }
      ],
      "name": "createPair",
      "outputs": [
        {
          "internalType": "address",
          "name": "newPair",
          "type": "address"
        }
      ],
      "stateMutability": "nonpayable",
      "type": "function"
    },
    {
      "inputs": [],
      "name": "feeTo",
      "outputs": [
        {
          "internalType": "address",
          "name": "",
          "type": "address"
        }
      ],
      "stateMutability": "view",
      "type": "function"
    },
    {
      "inputs": [],
      "name": "feeToSetter",
      "outputs": [
        {
          "internalType": "address",
          "name": "",
          "type": "address"
        }
      ],
      "stateMutability": "view",
      "type": "function"
    },
    {
      "inputs": [
        {
          "internalType": "address",
          "name": "",
          "type": "address"
        },
        {
          "internalType": "address",
          "name": "",
          "type": "address"
        }
      ],
      "name": "getPair",
      "outputs": [
        {
          "internalType": "address",
          "name": "",
          "type": "address"
        }
      ],
      "stateMutability": "view",
      "type": "function"
    },
    {
      "inputs": [],
      "name": "pairCreationCode",
      "outputs": [
        {
          "internalType": "bytes",
          "name": "",
          "type": "bytes"
        }
      ],
      "stateMutability": "view",
      "type": "function"
    },
    {
      "inputs": [
        {
          "internalType": "address",
          "name": "_feeTo",
          "type": "address"
        }
      ],
      "name": "setFeeTo",
      "outputs": [],
      "stateMutability": "nonpayable",
      "type": "function"
    },
    {
      "inputs": [
        {
          "internalType": "address",
          "name": "_feeToSetter",
          "type": "address"
        }
      ],
      "name": "setFeeToSetter",
      "outputs": [],
      "stateMutability": "nonpayable",
      "type": "function"
    }
  ],
  "transactionHash": "0x306e6417e7c1c3ff6419699493728a9705c13797458ab6f17de05876c0618488",
  "args": [
    "0x0000000000000000000000000000000000000000"
  ],
  "solcInputHash": "315d9bc450a5cbb78cf38019b8f7a020",
  "bytecode": "0x608060405234801561001057600080fd5b50604051612ace380380612ace8339818101604052602081101561003357600080fd5b5051600180546001600160a01b0319166001600160a01b03909216919091179055612a6b806100636000396000f3fe608060405234801561001057600080fd5b50600436106100935760003560e01c8063a2e74af611610066578063a2e74af6146100fb578063c9c6539614610123578063e6a4390514610151578063f46901ed1461017f578063fe8dd132146101a557610093565b8063017e7e5814610098578063094b7415146100bc5780631e3dd18b146100c4578063574f2ba3146100e1575b600080fd5b6100a0610222565b604080516001600160a01b039092168252519081900360200190f35b6100a0610231565b6100a0600480360360208110156100da57600080fd5b5035610240565b6100e961026a565b60408051918252519081900360200190f35b6101216004803603602081101561011157600080fd5b50356001600160a01b0316610270565b005b6100a06004803603604081101561013957600080fd5b506001600160a01b03813581169160200135166102e6565b6100a06004803603604081101561016757600080fd5b506001600160a01b0381358116916020013516610605565b6101216004803603602081101561019557600080fd5b50356001600160a01b031661062b565b6101ad6106a1565b6040805160208082528351818301528351919283929083019185019080838360005b838110156101e75781810151838201526020016101cf565b50505050905090810190601f1680156102145780820380516001836020036101000a031916815260200191505b509250505060405180910390f35b6000546001600160a01b031681565b6001546001600160a01b031681565b6003818154811061025057600080fd5b6000918252602090912001546001600160a01b0316905081565b60035490565b6001546001600160a01b031633146102c4576040805162461bcd60e51b81526020600482015260126024820152712ab734b9bbb0b81d102327a92124a22222a760711b604482015290519081900360640190fd5b600180546001600160a01b0319166001600160a01b0392909216919091179055565b6000816001600160a01b0316836001600160a01b0316141561034f576040805162461bcd60e51b815260206004820152601c60248201527f556e69737761703a204944454e544943414c5f41444452455353455300000000604482015290519081900360640190fd5b600080836001600160a01b0316856001600160a01b031610610372578385610375565b84845b90925090506001600160a01b0382166103cd576040805162461bcd60e51b8152602060048201526015602482015274556e69737761703a205a45524f5f4144445245535360581b604482015290519081900360640190fd5b6001600160a01b0382811660009081526002602090815260408083208585168452909152902054161561043e576040805162461bcd60e51b8152602060048201526014602482015273556e69737761703a20504149525f45584953545360601b604482015290519081900360640190fd5b6000828260405160200180836001600160a01b031660601b8152601401826001600160a01b031660601b815260140192505050604051602081830303815290604052805190602001209050600081604051610498906106c6565b8190604051809103906000f59050801580156104b8573d6000803e3d6000fd5b509050806001600160a01b031663485cc95585856040518363ffffffff1660e01b815260040180836001600160a01b03168152602001826001600160a01b0316815260200192505050600060405180830381600087803b15801561051b57600080fd5b505af115801561052f573d6000803e3d6000fd5b505050506001600160a01b03848116600081815260026020818152604080842089871680865290835281852080549789166001600160a01b031998891681179091559383528185208686528352818520805488168517905560038054600181018255958190527fc2575a0e9e593c00f959f8c92f12db2869c3395a3b0502d05e2516446f71f85b90950180549097168417909655925483519283529082015281517f0d3648bd0f6ba80134a33ba9275ac585d9d315f0ad8355cddefde31afa28d0e9929181900390910190a39695505050505050565b60026020908152600092835260408084209091529082529020546001600160a01b031681565b6001546001600160a01b0316331461067f576040805162461bcd60e51b81526020600482015260126024820152712ab734b9bbb0b81d102327a92124a22222a760711b604482015290519081900360640190fd5b600080546001600160a01b0319166001600160a01b0392909216919091179055565b6040516106b0602082016106c6565b601f1982820381018352601f9091011660405281565b612362806106d48339019056fe60806040526001600c5534801561001557600080fd5b50604080518082018252600a8152692ab734b9bbb0b8102b1960b11b6020918201528151808301835260018152603160f81b9082015281517f8b73c3c69bb8fe3d512ecc4cf759cc79239f7b179b0ffacaa9a75d522b39400f818301527fbfcc8ef98ffbf7b6c3fec7bf5185b566b9863e35a9d83acd49ad6824b5969738818401527fc89efdaa54c0f20c7adf612882df0950f5a951637e0307cdcb4c672f298b8bc660608201524660808201523060a0808301919091528351808303909101815260c09091019092528151910120600355600580546001600160a01b0319163317905561225a806101086000396000f3fe608060405234801561001057600080fd5b50600436106101a95760003560e01c80636a627842116100f9578063ba9a7a5611610097578063d21220a711610071578063d21220a714610534578063d505accf1461053c578063dd62ed3e1461058d578063fff6cae9146105bb576101a9565b8063ba9a7a56146104fe578063bc25cf7714610506578063c45a01551461052c576101a9565b80637ecebe00116100d35780637ecebe001461046557806389afcb441461048b57806395d89b41146104ca578063a9059cbb146104d2576101a9565b80636a6278421461041157806370a08231146104375780637464fc3d1461045d576101a9565b806323b872dd116101665780633644e515116101405780633644e515146103cb578063485cc955146103d35780635909c0d5146104015780635a3d549314610409576101a9565b806323b872dd1461036f57806330adf81f146103a5578063313ce567146103ad576101a9565b8063022c0d9f146101ae57806306fdde031461023c5780630902f1ac146102b9578063095ea7b3146102f15780630dfe16811461033157806318160ddd14610355575b600080fd5b61023a600480360360808110156101c457600080fd5b8135916020810135916001600160a01b0360408301351691908101906080810160608201356401000000008111156101fb57600080fd5b82018360208201111561020d57600080fd5b8035906020019184600183028401116401000000008311171561022f57600080fd5b5090925090506105c3565b005b610244610adb565b6040805160208082528351818301528351919283929083019185019080838360005b8381101561027e578181015183820152602001610266565b50505050905090810190601f1680156102ab5780820380516001836020036101000a031916815260200191505b509250505060405180910390f35b6102c1610b01565b604080516001600160701b03948516815292909316602083015263ffffffff168183015290519081900360600190f35b61031d6004803603604081101561030757600080fd5b506001600160a01b038135169060200135610b2b565b604080519115158252519081900360200190f35b610339610b42565b604080516001600160a01b039092168252519081900360200190f35b61035d610b51565b60408051918252519081900360200190f35b61031d6004803603606081101561038557600080fd5b506001600160a01b03813581169160208101359091169060400135610b57565b61035d610beb565b6103b5610c0f565b6040805160ff9092168252519081900360200190f35b61035d610c14565b61023a600480360360408110156103e957600080fd5b506001600160a01b0381358116916020013516610c1a565b61035d610c9c565b61035d610ca2565b61035d6004803603602081101561042757600080fd5b50356001600160a01b0316610ca8565b61035d6004803603602081101561044d57600080fd5b50356001600160a01b0316610f82565b61035d610f94565b61035d6004803603602081101561047b57600080fd5b50356001600160a01b0316610f9a565b6104b1600480360360208110156104a157600080fd5b50356001600160a01b0316610fac565b6040805192835260208301919091528051918290030190f35b61024461133e565b61031d600480360360408110156104e857600080fd5b506001600160a01b038135169060200135611360565b61035d61136d565b61023a6004803603602081101561051c57600080fd5b50356001600160a01b0316611373565b6103396114e3565b6103396114f2565b61023a600480360360e081101561055257600080fd5b506001600160a01b03813581169160208101359091169060408101359060608101359060ff6080820135169060a08101359060c00135611501565b61035d600480360360408110156105a357600080fd5b506001600160a01b0381358116916020013516611701565b61023a61171e565b600c5460011461060c576040805162461bcd60e51b815260206004820152600f60248201526e155b9a5cddd85c0e881313d0d2d151608a1b604482015290519081900360640190fd5b6000600c558415158061061f5750600084115b61065a5760405162461bcd60e51b81526004018080602001828103825260238152602001806121e06023913960400191505060405180910390fd5b600080610665610b01565b5091509150816001600160701b03168710801561068a5750806001600160701b031686105b6106db576040805162461bcd60e51b815260206004820152601f60248201527f556e69737761703a20494e53554646494349454e545f4c495155494449545900604482015290519081900360640190fd5b60065460075460009182916001600160a01b039182169190811690891682148015906107195750806001600160a01b0316896001600160a01b031614155b610760576040805162461bcd60e51b8152602060048201526013602482015272556e69737761703a20494e56414c49445f544f60681b604482015290519081900360640190fd5b8a1561077157610771828a8d61187e565b891561078257610782818a8c61187e565b861561083457886001600160a01b03166310d1e85c338d8d8c8c6040518663ffffffff1660e01b815260040180866001600160a01b03168152602001858152602001848152602001806020018281038252848482818152602001925080828437600081840152601f19601f8201169050808301925050509650505050505050600060405180830381600087803b15801561081b57600080fd5b505af115801561082f573d6000803e3d6000fd5b505050505b604080516370a0823160e01b815230600482015290516001600160a01b038416916370a08231916024808301926020929190829003018186803b15801561087a57600080fd5b505afa15801561088e573d6000803e3d6000fd5b505050506040513d60208110156108a457600080fd5b5051604080516370a0823160e01b815230600482015290519195506001600160a01b038316916370a0823191602480820192602092909190829003018186803b1580156108f057600080fd5b505afa158015610904573d6000803e3d6000fd5b505050506040513d602081101561091a57600080fd5b5051925060009150506001600160701b0385168a9003831161093d57600061094c565b89856001600160701b03160383035b9050600089856001600160701b0316038311610969576000610978565b89856001600160701b03160383035b905060008211806109895750600081115b6109c45760405162461bcd60e51b81526004018080602001828103825260228152602001806122036022913960400191505060405180910390fd5b60006109e66109d4846003611a17565b6109e0876103e8611a17565b90611a77565b905060006109f86109d4846003611a17565b9050610a1d620f4240610a176001600160701b038b8116908b16611a17565b90611a17565b610a278383611a17565b1015610a67576040805162461bcd60e51b815260206004820152600a602482015269556e69737761703a204b60b01b604482015290519081900360640190fd5b5050610a7584848888611ab9565b60408051838152602081018390528082018d9052606081018c905290516001600160a01b038b169133917fd78ad95fa46c994b6551d0da85fc275fe613ce37657fb8d5e3d130840159d8229181900360800190a350506001600c55505050505050505050565b6040518060400160405280600a8152602001692ab734b9bbb0b8102b1960b11b81525081565b6008546001600160701b0380821692600160701b830490911691600160e01b900463ffffffff1690565b6000610b38338484611c76565b5060015b92915050565b6006546001600160a01b031681565b60005481565b6001600160a01b038316600090815260026020908152604080832033845290915281205460001914610bd6576001600160a01b0384166000908152600260209081526040808320338452909152902054610bb19083611a77565b6001600160a01b03851660009081526002602090815260408083203384529091529020555b610be1848484611cd8565b5060019392505050565b7f6e71edae12b1b97f4d1f60370fef10105fa2faae0126114a169c64845d6126c981565b601281565b60035481565b6005546001600160a01b03163314610c6e576040805162461bcd60e51b81526020600482015260126024820152712ab734b9bbb0b81d102327a92124a22222a760711b604482015290519081900360640190fd5b600680546001600160a01b039384166001600160a01b03199182161790915560078054929093169116179055565b60095481565b600a5481565b6000600c54600114610cf3576040805162461bcd60e51b815260206004820152600f60248201526e155b9a5cddd85c0e881313d0d2d151608a1b604482015290519081900360640190fd5b6000600c81905580610d03610b01565b50600654604080516370a0823160e01b815230600482015290519395509193506000926001600160a01b03909116916370a08231916024808301926020929190829003018186803b158015610d5757600080fd5b505afa158015610d6b573d6000803e3d6000fd5b505050506040513d6020811015610d8157600080fd5b5051600754604080516370a0823160e01b815230600482015290519293506000926001600160a01b03909216916370a0823191602480820192602092909190829003018186803b158015610dd457600080fd5b505afa158015610de8573d6000803e3d6000fd5b505050506040513d6020811015610dfe57600080fd5b505190506000610e17836001600160701b038716611a77565b90506000610e2e836001600160701b038716611a77565b90506000610e3c8787611d86565b60005490915080610e7357610e5f6103e86109e0610e5a8787611a17565b611ec6565b9850610e6e60006103e8611f18565b610eb6565b610eb36001600160701b038916610e8a8684611a17565b81610e9157fe5b046001600160701b038916610ea68685611a17565b81610ead57fe5b04611fa2565b98505b60008911610ef55760405162461bcd60e51b81526004018080602001828103825260268152602001806121736026913960400191505060405180910390fd5b610eff8a8a611f18565b610f0b86868a8a611ab9565b8115610f3557600854610f31906001600160701b0380821691600160701b900416611a17565b600b555b6040805185815260208101859052815133927f4c209b5fc8ad50758f13e2e1088ba56a560dff690a1c6fef26394f4c03821c4f928290030190a250506001600c5550949695505050505050565b60016020526000908152604090205481565b600b5481565b60046020526000908152604090205481565b600080600c54600114610ff8576040805162461bcd60e51b815260206004820152600f60248201526e155b9a5cddd85c0e881313d0d2d151608a1b604482015290519081900360640190fd5b6000600c81905580611008610b01565b50600654600754604080516370a0823160e01b815230600482015290519496509294506001600160a01b039182169391169160009184916370a08231916024808301926020929190829003018186803b15801561106457600080fd5b505afa158015611078573d6000803e3d6000fd5b505050506040513d602081101561108e57600080fd5b5051604080516370a0823160e01b815230600482015290519192506000916001600160a01b038516916370a08231916024808301926020929190829003018186803b1580156110dc57600080fd5b505afa1580156110f0573d6000803e3d6000fd5b505050506040513d602081101561110657600080fd5b5051306000908152600160205260408120549192506111258888611d86565b600054909150806111368487611a17565b8161113d57fe5b049a508061114b8486611a17565b8161115257fe5b04995060008b118015611165575060008a115b6111a05760405162461bcd60e51b81526004018080602001828103825260268152602001806121ba6026913960400191505060405180910390fd5b6111aa3084611fb8565b6111b5878d8d61187e565b6111c0868d8c61187e565b604080516370a0823160e01b815230600482015290516001600160a01b038916916370a08231916024808301926020929190829003018186803b15801561120657600080fd5b505afa15801561121a573d6000803e3d6000fd5b505050506040513d602081101561123057600080fd5b5051604080516370a0823160e01b815230600482015290519196506001600160a01b038816916370a0823191602480820192602092909190829003018186803b15801561127c57600080fd5b505afa158015611290573d6000803e3d6000fd5b505050506040513d60208110156112a657600080fd5b505193506112b685858b8b611ab9565b81156112e0576008546112dc906001600160701b0380821691600160701b900416611a17565b600b555b604080518c8152602081018c905281516001600160a01b038f169233927fdccd412f0b1252819cb1fd330b93224ca42612892bb3f4f789976e6d81936496929081900390910190a35050505050505050506001600c81905550915091565b604051806040016040528060068152602001652aa72496ab1960d11b81525081565b6000610b38338484611cd8565b6103e881565b600c546001146113bc576040805162461bcd60e51b815260206004820152600f60248201526e155b9a5cddd85c0e881313d0d2d151608a1b604482015290519081900360640190fd5b6000600c55600654600754600854604080516370a0823160e01b815230600482015290516001600160a01b0394851694909316926114659285928792611460926001600160701b03169185916370a0823191602480820192602092909190829003018186803b15801561142e57600080fd5b505afa158015611442573d6000803e3d6000fd5b505050506040513d602081101561145857600080fd5b505190611a77565b61187e565b6114d981846114606008600e9054906101000a90046001600160701b03166001600160701b0316856001600160a01b03166370a08231306040518263ffffffff1660e01b815260040180826001600160a01b0316815260200191505060206040518083038186803b15801561142e57600080fd5b50506001600c5550565b6005546001600160a01b031681565b6007546001600160a01b031681565b42841015611549576040805162461bcd60e51b815260206004820152601060248201526f155b9a5cddd85c0e881156141254915160821b604482015290519081900360640190fd5b6003546001600160a01b0380891660008181526004602090815260408083208054600180820190925582517f6e71edae12b1b97f4d1f60370fef10105fa2faae0126114a169c64845d6126c98186015280840196909652958d166060860152608085018c905260a085019590955260c08085018b90528151808603909101815260e08501825280519083012061190160f01b6101008601526101028501969096526101228085019690965280518085039096018652610142840180825286519683019690962095839052610162840180825286905260ff89166101828501526101a284018890526101c28401879052519193926101e280820193601f1981019281900390910190855afa158015611664573d6000803e3d6000fd5b5050604051601f1901519150506001600160a01b0381161580159061169a5750886001600160a01b0316816001600160a01b0316145b6116eb576040805162461bcd60e51b815260206004820152601a60248201527f556e69737761703a20494e56414c49445f5349474e4154555245000000000000604482015290519081900360640190fd5b6116f6898989611c76565b505050505050505050565b600260209081526000928352604080842090915290825290205481565b600c54600114611767576040805162461bcd60e51b815260206004820152600f60248201526e155b9a5cddd85c0e881313d0d2d151608a1b604482015290519081900360640190fd5b6000600c55600654604080516370a0823160e01b81523060048201529051611877926001600160a01b0316916370a08231916024808301926020929190829003018186803b1580156117b857600080fd5b505afa1580156117cc573d6000803e3d6000fd5b505050506040513d60208110156117e257600080fd5b5051600754604080516370a0823160e01b815230600482015290516001600160a01b03909216916370a0823191602480820192602092909190829003018186803b15801561182f57600080fd5b505afa158015611843573d6000803e3d6000fd5b505050506040513d602081101561185957600080fd5b50516008546001600160701b0380821691600160701b900416611ab9565b6001600c55565b604080518082018252601981527f7472616e7366657228616464726573732c75696e74323536290000000000000060209182015281516001600160a01b0385811660248301526044808301869052845180840390910181526064909201845291810180516001600160e01b031663a9059cbb60e01b17815292518151600094859489169392918291908083835b6020831061192a5780518252601f19909201916020918201910161190b565b6001836020036101000a0380198251168184511680821785525050505050509050019150506000604051808303816000865af19150503d806000811461198c576040519150601f19603f3d011682016040523d82523d6000602084013e611991565b606091505b50915091508180156119bf5750805115806119bf57508080602001905160208110156119bc57600080fd5b50515b611a10576040805162461bcd60e51b815260206004820152601860248201527f556e69737761703a205452414e534645525f4641494c45440000000000000000604482015290519081900360640190fd5b5050505050565b600082611a2657506000610b3c565b82820282848281611a3357fe5b0414611a705760405162461bcd60e51b81526004018080602001828103825260218152602001806121996021913960400191505060405180910390fd5b9392505050565b6000611a7083836040518060400160405280601e81526020017f536166654d6174683a207375627472616374696f6e206f766572666c6f77000081525061204a565b6001600160701b038411801590611ad757506001600160701b038311155b611b1c576040805162461bcd60e51b8152602060048201526011602482015270556e69737761703a204f564552464c4f5760781b604482015290519081900360640190fd5b60085463ffffffff42811691600160e01b90048116820390811615801590611b4c57506001600160701b03841615155b8015611b6057506001600160701b03831615155b15611bcb578063ffffffff16611b8885611b79866120e1565b6001600160e01b0316906120f3565b600980546001600160e01b03929092169290920201905563ffffffff8116611bb384611b79876120e1565b600a80546001600160e01b0392909216929092020190555b600880546dffffffffffffffffffffffffffff19166001600160701b03888116919091176dffffffffffffffffffffffffffff60701b1916600160701b8883168102919091176001600160e01b0316600160e01b63ffffffff871602179283905560408051848416815291909304909116602082015281517f1c411e9a96e071241c2f21f7726b17ae89e3cab4c78be50e062b03a9fffbbad1929181900390910190a1505050505050565b6001600160a01b03808416600081815260026020908152604080832094871680845294825291829020859055815185815291517f8c5be1e5ebec7d5bd14f71427d1e84f3dd0314c0f7b2291e5b200ac8c7c3b9259281900390910190a3505050565b6001600160a01b038316600090815260016020526040902054611cfb9082611a77565b6001600160a01b038085166000908152600160205260408082209390935590841681522054611d2a9082612118565b6001600160a01b0380841660008181526001602090815260409182902094909455805185815290519193928716927fddf252ad1be2c89b69c2b068fc378daa952ba7f163c4a11628f55a4df523b3ef92918290030190a3505050565b600080600560009054906101000a90046001600160a01b03166001600160a01b031663017e7e586040518163ffffffff1660e01b815260040160206040518083038186803b158015611dd757600080fd5b505afa158015611deb573d6000803e3d6000fd5b505050506040513d6020811015611e0157600080fd5b5051600b546001600160a01b038216158015945091925090611eb2578015611ead576000611e3e610e5a6001600160701b03888116908816611a17565b90506000611e4b83611ec6565b905080821115611eaa576000611e6d611e648484611a77565b60005490611a17565b90506000611e8683611e80866005611a17565b90612118565b90506000818381611e9357fe5b0490508015611ea657611ea68782611f18565b5050505b50505b611ebe565b8015611ebe576000600b555b505092915050565b60006003821115611f09575080600160028204015b81811015611f0357809150600281828581611ef257fe5b040181611efb57fe5b049050611edb565b50611f13565b8115611f13575060015b919050565b600054611f259082612118565b60009081556001600160a01b038316815260016020526040902054611f4a9082612118565b6001600160a01b03831660008181526001602090815260408083209490945583518581529351929391927fddf252ad1be2c89b69c2b068fc378daa952ba7f163c4a11628f55a4df523b3ef9281900390910190a35050565b6000818310611fb15781611a70565b5090919050565b6001600160a01b038216600090815260016020526040902054611fdb9082611a77565b6001600160a01b038316600090815260016020526040812091909155546120029082611a77565b60009081556040805183815290516001600160a01b038516917fddf252ad1be2c89b69c2b068fc378daa952ba7f163c4a11628f55a4df523b3ef919081900360200190a35050565b600081848411156120d95760405162461bcd60e51b81526004018080602001828103825283818151815260200191508051906020019080838360005b8381101561209e578181015183820152602001612086565b50505050905090810190601f1680156120cb5780820380516001836020036101000a031916815260200191505b509250505060405180910390fd5b505050900390565b6001600160701b0316600160701b0290565b60006001600160701b0382166001600160e01b0384168161211057fe5b049392505050565b600082820183811015611a70576040805162461bcd60e51b815260206004820152601b60248201527f536166654d6174683a206164646974696f6e206f766572666c6f770000000000604482015290519081900360640190fdfe556e69737761703a20494e53554646494349454e545f4c49515549444954595f4d494e544544536166654d6174683a206d756c7469706c69636174696f6e206f766572666c6f77556e69737761703a20494e53554646494349454e545f4c49515549444954595f4255524e4544556e69737761703a20494e53554646494349454e545f4f55545055545f414d4f554e54556e69737761703a20494e53554646494349454e545f494e5055545f414d4f554e54a2646970667358221220ae8ce619526e50ec8c6f3c1ed37db0a883553c3126bb1a6c6b3a1b6f5994478e64736f6c63430007060033a26469706673582212205342ed9b728ad8a093fc2cc5130a55f2c58a87813850cbab21c52d453aaac29264736f6c63430007060033",
  "devdoc": {
    "kind": "dev",
    "methods": {},
    "version": 1
  },
  "userdoc": {
    "kind": "user",
    "methods": {},
    "version": 1
  },
  "storageLayout": {
    "storage": [
      {
        "astId": 2009,
        "contract": "src.sol/uniswap/factory.sol:UniswapFactory",
        "label": "feeTo",
        "offset": 0,
        "slot": "0",
        "type": "t_address"
      },
      {
        "astId": 2012,
        "contract": "src.sol/uniswap/factory.sol:UniswapFactory",
        "label": "feeToSetter",
        "offset": 0,
        "slot": "1",
        "type": "t_address"
      },
      {
        "astId": 2025,
        "contract": "src.sol/uniswap/factory.sol:UniswapFactory",
        "label": "getPair",
        "offset": 0,
        "slot": "2",
        "type": "t_mapping(t_address,t_mapping(t_address,t_address))"
      },
      {
        "astId": 2029,
        "contract": "src.sol/uniswap/factory.sol:UniswapFactory",
        "label": "allPairs",
        "offset": 0,
        "slot": "3",
        "type": "t_array(t_address)dyn_storage"
      }
    ],
    "types": {
      "t_address": {
        "encoding": "inplace",
        "label": "address",
        "numberOfBytes": "20"
      },
      "t_array(t_address)dyn_storage": {
        "base": "t_address",
        "encoding": "dynamic_array",
        "label": "address[]",
        "numberOfBytes": "32"
      },
      "t_mapping(t_address,t_address)": {
        "encoding": "mapping",
        "key": "t_address",
        "label": "mapping(address => address)",
        "numberOfBytes": "32",
        "value": "t_address"
      },
      "t_mapping(t_address,t_mapping(t_address,t_address))": {
        "encoding": "mapping",
        "key": "t_address",
        "label": "mapping(address => mapping(address => address))",
        "numberOfBytes": "32",
        "value": "t_mapping(t_address,t_address)"
      }
    }
  }
}